:100000000C943E000C94AC0E0C94A20F0C94EA10CD
:100010000C94EA100C94EA100C94EA100C94EA1078
:100020000C94EA100C94EA100C94EA100C943C1016
:100030000C94EA100C94EA100C94EA100C94EA1058
:100040000C94EA100C94EA100C94EA100C94EA1048
:100050000C94EA100C945E0E0C94EA100C94EA10C6
:100060000C94EA100C94EA100100011980011901A6
:100070001A000127011A011B0021EA0011241FBEEA
:10008000CFEFD8E0DEBFCDBFE8E6F0E040E017C03C
:10009000B591A59135912591059107FD0CC09591DC
:1000A0008591EF01F92FE82F05900D92A217B30764
:1000B000D9F7FE0104C01D92A217B307E1F7EB3791
:1000C000F40731F70E94880A0C945F10F894FFCF70
:1000D0006D672F4C3A20004241433A2000672F645D
:1000E0004C00436F706F733A2000556E6964616411
:1000F0006520696E76616C696461004261666F6D4E
:0F0100006574726F00496E696369616E646F00A8
:08010F0000000000DCCFD13537
:080117000000000000C0153FCC
:08011F000000803F0000C03F1A
:0101270001D6
:10012800A3E2B0E0EAE9F0E00C943B0F29833A83BC
:100138004B835C8329013A01E89477F84114510410
:100148006104710409F46CC66D877E878F87988B6C
:100158007B018C0161157105A0E88A07AFE39A0756
:1001680009F45EC629873A874B875C874B015C0197
:100178006B017C01E894F7F8B1E0CB16D104B0E844
:10018800EB06BFE7FB0644F4E1E04E165104E0E855
:100198006E06EFE77E064CF029853A854B855C852F
:1001A800C501B4010E94A11046C60D851E852F8584
:1001B800388937FF4DC04114510410E861061BE42B
:1001C80071060CF04AC04114510420E862062FE37E
:1001D80072060CF470C0D301C20107E1B595A7956A
:1001E800979587950A95D1F78F579109A109B10974
:1001F80027E130E0281B390BD301C201022E04C0CD
:10020800B595A795979587950A94D2F7AC01BD0146
:1002180004C0440F551F661F771F2A95D2F744164E
:1002280055066606770609F046C081709927AA2701
:10023800BB2742E050E060E070E08A019B01081BA8
:10024800190B2A0B3B0B0D831E832F83388737C06E
:100258001D821E821F82188608C022E030E040E01E
:1002680050E02D833E834F8358874114510430E872
:1002780063063FE7730619F5C114D10440E8E406A4
:100288004FE3F40609F4CCC55CF0E980FA800B81F1
:100298001C8117FDCAC569857A858B859C85CBC568
:1002A800E980FA800B811C8117FFBFC569857A85B3
:1002B8008B859C858AC01D821E821F8218864114E8
:1002C800510400E860060FE3700669F4E980FA80DB
:1002D8000B811C8117FFADC5A501940160E070E09A
:1002E80080E89FE365C009811A812B813C81011553
:1002F8001105210540E4340729F4A5019401C5013D
:10030800B401C2C089819A81AB81BC810097A105E3
:10031800BF4359F40D851E852F85388937FD05C0E3
:10032800C501B4010E94C10886C5C501B4010E9477
:10033800EE10C114D104E104F10449F095018401DF
:100348003F730115110520483F4309F040C009815A
:100358001A812B813C8137FF08C09B01AC0160E00A
:1003680070E080E89FE30E94DF102D853E854F8571
:10037800588957FF60C530E8E31A3FE3F30A0D8157
:100388001E812F813885C02AD12AE22AF32AC11476
:10039800D104E104F10479F421E230E03093010161
:1003A800209300019B01AC010E94A0109B01AC01AD
:1003B8000E94DF1040C52D813E814F815885213034
:1003C80031054105510509F036C5905834C50D85EC
:1003D8001E852F85388937FF21C02D813E814F81A9
:1003E8005885232B242B252B59F481E290E09093F8
:1003F800010180930001A5019401C501B401D4CF86
:100408000D811E812F8138850130110521053105A7
:1004180071F420E030E040E85FEB0DC000E010E050
:1004280020E83FE30D831E832F83388708C020E030
:1004380030E040E85FE32D833E834F83588731E007
:100448004316510461043DE473060CF497C048EF69
:10045800C4164FEFD4064FE7E4064FE3F406BCF4A6
:10046800E980FA800B811C8117FF60C32AEC32EF08
:1004780049E451E76D817E818F8198850E94E31060
:100488002AEC32EF49E451E70E94E310D4C408E0B3
:10049800C016D10400E8E0060FE3F00654F0E98046
:1004A800FA800B811C811E141F0410061106F4F239
:1004B8003DC320E030E040E85FE30E94A0106B01FC
:1004C8007C0120E03AEA48EB5FE30E94E3104B012D
:1004D8005C0120E735EA4CEE56E3C701B6010E94FD
:1004E800E31069837A838B839C8320E030E040E8C3
:1004F8005EE3C701B6010E94E3109B01AC016BEA01
:100508007AEA8AEA9EE30E94A010A70196010E9457
:10051800E3109B01AC0160E070E080E09FE30E9483
:10052800A0102B013C01A7019601C701B6010E944A
:10053800E3109B01AC01C301B2010E94E3102BE35D
:100548003AEA48EB5FE30E94E3109B01AC01698142
:100558007A818B819C810E94A0106B017C019B0198
:10056800AC01C501B4010E94A1106627707F6D8798
:100578007E878F87988BA501940136C2C114D10458
:1005880000E8E006F1046CF420E030E040E85BE4C9
:100598000E94E3106B017C0148EE5FEF6FEF7FEF85
:1005A80003C040E050E0BA01D701C60117E1B59594
:1005B800A795979587951A95D1F78F579109A1090E
:1005C800B1098C019D01040F151F261F371F0D8BC4
:1005D8001E8B2F8B388FE894E7F8FF2446015701CC
:1005E8006894A7F81FE3B12A22E7C21624ECD206C2
:1005F8002CE1E206F104B4F037EDC31633EBD30671
:100608003DE5E306F10494F08D899E89AF89B88DA4
:100618000196A11DB11D8D8B9E8BAF8BB88F90E875
:10062800A91AB108412C512C320104C0412C512C7B
:1006380032014394C201880F991F880F991F7C01CA
:10064800990F000BE98EFA8E0B8FA02FC701815EE0
:100658009E4FAF4FFC015A2F0E944810698B7A8B2E
:100668008B8B9C8B9B01AC01C501B4010E94A0102F
:100678006C8F7D8F8E8F9F8F29893A894B895C89F2
:10068800C501B4010E94A1109B01AC0160E070E0BB
:1006980080E89FE30E94DF1068A379A38AA39BA345
:1006A8009B01AC016C8D7D8D8E8D9F8D0E94E3101A
:1006B8006D877E878F87988B0D851E852F85388956
:1006C8000027107F09831A832B833C8375016401FB
:1006D800F594E794D794C794CC2410EFD122E894EA
:1006E800F5F86894F5F8D701C601A05CBF4F73010F
:1006F8006201F5E1CC0CDD1CEE1CFF1CFA95D1F76C
:10070800C80ED91EEA1EFB1EA701960169817A81CF
:100718008B819C810E94E3109B01AC016C8D7D8DC7
:100728008E8D9F8D0E94A0102B013C0129893A894A
:100738004B895C89C701B6010E94A0109B01AC01DE
:10074800C501B4010E94A01029813A814B815C81C6
:100758000E94E3109B01AC01C301B2010E94A010EA
:1007680028A139A14AA15BA10E94E310698B7A8B69
:100778008B8B9C8B2D853E854F855889CA01B90185
:100788000E94E3106B017C0122E431EF43E55EE354
:100798000E94E31025E532E34CE65EE30E94A110D7
:1007A800A70196010E94E31025E033EA4BE85EE3D7
:1007B8000E94A110A70196010E94E3102BEA3AEAD1
:1007C8004AEA5EE30E94A110A70196010E94E31085
:1007D80027EB3DE64BED5EE30E94A110A7019601D1
:1007E8000E94E3102AE939E949E15FE30E94A11078
:1007F8004B015C01A7019601C701B6010E94E310F5
:100808009B01AC01C501B4010E94E3106B017C019E
:1008180029813A814B815C816D857E858F85988998
:100828000E94A11029893A894B895C890E94E310AA
:10083800A70196010E94A1106B017C0129813A81D0
:100848004B815C81CA01B9010E94E3102B013C0174
:1008580020E030E040E450E40E94A110A701960196
:100868000E94A1104B015C01882420EF9222A5016F
:10087800940169817A818B819C810E94E31069834C
:100888007A838B839C8320E030E040E450E4C50108
:10089800B4010E94A010A30192010E94A0109B0124
:1008A800AC01C701B6010E94A0102D853E854F8579
:1008B80058890E94E3106B017C01A50194016989A4
:1008C8007A898B899C890E94E3109B01AC01C7013E
:1008D800B6010E94A1106B017C019B01AC016981EA
:1008E8007A818B819C810E94A1102B013C014424B8
:1008F80030EF532220E030E446E75FE3C301B20162
:100908000E94E310698B7A8B8B8B9C8B29813A81AF
:100918004B815C81C301B2010E94A0109B01AC0114
:10092800C701B6010E94A0102FE438E346E75FE351
:100938000E94E3106B017C0126EC33E246EF58EB92
:10094800C301B2010E94E3109B01AC01C701B601CB
:100958000E94A1106B017C01898D9A8DAB8D815FFE
:100968009E4FAF4FFC015A2F0E9448109B01AC01CB
:10097800C701B6010E94A1106B017C016D897E89B7
:100988008F89988D0E94F40D4B015C01898D9A8D99
:10099800AB8D895E9E4FAF4FFC015A2F0E944810C5
:1009A8002B013C01A701960169897A898B899C8969
:1009B8000E94A110A30192010E94A110A501940117
:1009C8000E94A1106627707F6D877E878F87988B1E
:1009D800A50194010E94A010A30192010E94A010F9
:1009E80029893A894B895C890E94A0109B01AC0136
:1009F800C701B6010E94A0104B015C01C984DA84CA
:100A0800EB84FC84CC2440EFD422A70196016985AD
:100A18007A858B859C850E94A0102D853E854F8503
:100A280058890E94E3102B013C0129853A854B85A2
:100A38005C85C501B4010E94E3109B01AC01C301B0
:100A4800B2010E94A11069837A838B839C83A701DA
:100A580096016D857E858F8598890E94E310962E74
:100A6800A72EB82E892E6D87798B182F092F262F40
:100A7800372F482F592F69817A818B819C810E9459
:100A8800A1106B017C0169877A878B879C87DC01C1
:100A9800CB010197A105B3440CF0E8CC29853A8530
:100AA8004B855C852115310541055344E9F42CE358
:100AB8003AEA48E353E369817A818B819C810E94F9
:100AC800A1102B013C01292D3A2D4B2D582DC70182
:100AD800B6010E94A0109B01AC01C301B2010E94A3
:100AE800CE10181694F5C2CCD701C601BF7701976E
:100AF800A641B344DCF429853A854B855C852115EC
:100B080031054641534C09F5292D3A2D4B2D582DC9
:100B1800C701B6010E94A0109B01AC0169817A81CE
:100B28008B819C810E94C91018167CF020E632E463
:100B380042EA5DE06D817E818F8198850E94E31095
:100B480020E632E442EA5DE09FCCD701C601BF77D8
:100B580081309105A105EFE3BE070CF469C057E1A8
:100B6800B595A795979587955A95D1F78E5740E0F3
:100B780050E060E870E08A019B0104C03595279534
:100B8800179507958A95D2F7C00ED11EE21EF31E5F
:100B9800D701C601BF7767E1B595A7959795879562
:100BA8006A95D1F78F579109A109B1094FEF5FEF06
:100BB8006FE770E0082E04C07595679557954795BF
:100BC8000A94D2F740955095609570959A01AB01BB
:100BD8002C213D214E215F21E894E7F8FF246894F9
:100BE800E7F867E170E0FB01E81BF90B2601370124
:100BF80004C07594679457944794EA95D2F7E984AA
:100C0800FA840B851C8517FF08C070946094509473
:100C18004094411C511C611C711C692D7A2D8B2D2F
:100C2800982D0E94A0106D87798B182F092F03C06B
:100C3800412C512C320129813A814B815C816D858F
:100C48007989812F902F0E94A1104B015C01882483
:100C580020E8922220E032E741E35FE3C501B401D6
:100C68000E94E31069877A878B879C872D8539894D
:100C7800412F502FC501B4010E94A0109B01AC0167
:100C880069817A818B819C810E94A01028E132E7DA
:100C980041E35FE30E94E3106B017C012CE83EEB2B
:100CA8004FEB55E3C501B4010E94E3109B01AC0171
:100CB800C701B6010E94A1104B015C019B01AC0168
:100CC80069857A858B859C850E94A1106B017C01C2
:100CD80029853A854B855C850E94A0109B01AC0153
:100CE800C501B4010E94A01069837A838B839C8319
:100CF800A7019601C701B6010E94E3104B015C01F0
:100D08002CE43BEB41E353E30E94E3102EE03AEE80
:100D18004DED55E30E94A010A50194010E94E31037
:100D280025E533EB4AE858E30E94A110A501940198
:100D38000E94E31021E63BE046E35BE30E94A0103B
:100D4800A50194010E94E3102BEA3AEA4AE25EE325
:100D58000E94A110A50194010E94E3109B01AC011F
:100D6800C701B6010E94A0104B015C019B01AC01B8
:100D7800C701B6010E94E31069877A878B879C8731
:100D880020E030E040E050E4C501B4010E94A0102A
:100D98009B01AC0169857A858B859C850E94DF1053
:100DA8004B015C0129813A814B815C81C701B60105
:100DB8000E94E31029813A814B815C810E94A11035
:100DC8009B01AC01C501B4010E94A010A7019601C6
:100DD8000E94A0109B01AC0160E070E080E89FE3F6
:100DE8000E94A0109301820147E1000F111F221FEA
:100DF800331F4A95D1F7060F171F281F391F0115F2
:100E0800110540E82407310524F4A2010E945C0D75
:100E180002C0C901B8012D813E814F81588534CB6C
:100E280060E070E080E89FE306C060E070E0CB011E
:0E0E380002C0C501B401A396E0E10C94720F54
:100E46004F925F926F927F928F929F92AF92BF92D4
:100E5600CF92DF92EF92FF92CF93DF93CDB7DEB7BB
:100E660066970FB6F894DEBF0FBECDBF6B017C014F
:100E76004B015C0120E8A21AB1088114910430E804
:100E8600A3063FE7B306A0F14B015C01880C991C51
:100E9600AA1CBB1C89288A288B2859F49B01AC0103
:100EA6000E94E3109B01AC0160E070E080E89FEBDC
:100EB6000FC097FF10C021E230E03093010120936C
:100EC60000019B01AC010E94A01020E030E0A901C6
:100ED6000E94DF1031C120E030E040E05CE40E9477
:100EE600E3106B017C0147EE5FEF5E8B4D8B12C00A
:100EF6006115710550E885075FE7950708F01CC185
:100F0600C114D10480E8E8068FE3F80609F419C194
:100F16001E8A1D8AA7019601235F3440454B5F4F09
:100F26002D873E874F87588BDA01C901AF77BB27DC
:100F3600BC01CD016D507B4F8A4C904C20E030E0D7
:100F460040E85FE30E94A0106B017C0120E030E0E6
:100F560040E050E40E94A1109B01AC01C701B6011C
:100F66000E94DF1069837A838B839C839B01AC018B
:100F76000E94E3106D837E838F8398879B01AC016B
:100F86000E94E3104B015C0120E030E040E05FE3AB
:100F9600C701B6010E94E310A70196010E94E31063
:100FA6002B013C019B01AC01C701B6010E94A010B8
:100FB6009B01AC012227307F29873A874B875C87C4
:100FC60026E23EE948E75EE3C501B4010E94E3106C
:100FD60023E13EEC4CEC5EE30E94A110A5019401D6
:100FE6000E94E310698B7A8B8B8B9C8B2EEE39EEED
:100FF60041E95EE3C501B4010E94E3102AEA3AEA38
:101006004AE25FE30E94A1102D813E814F815885FF
:101016000E94E3109B01AC0169897A898B899C89BE
:101026000E94A110A30192010E94A11029813A8178
:101036004B815C810E94E3104B015C0129853A8556
:101046004B855C85C701B6010E94A010A3019201E1
:101056000E94A0109B01AC01C501B4010E94A11021
:101066004B015C018D859E85AF85B88927E1B695D4
:10107600A795979587952A95D1F7BC016F57710962
:101086004D895E89640F751F072E000C880B990B1E
:101096000E94F40D6B017C01A501940169857A8596
:1010A6008B859C850E94A11029ED3AEE44E058EB11
:1010B6000E94E3102B013C012BED37E244E555E39A
:1010C600C701B6010E94E3109B01AC01C301B20146
:1010D6000E94A1102B013C0120E030E64EED5EE3BC
:1010E600C501B4010E94E3109B01AC01C301B2012A
:1010F6000E94A1104B015C0120E030E64EED5EE35C
:1011060069857A858B859C850E94E3109B01AC01DD
:10111600C501B4010E94A1104B015C0120E830E238
:101126004AE95EE3C701B6010E94E3109B01AC01E8
:10113600C501B4010E94A110562F472F382F292F21
:1011460004C050E040E030E020E0652F742F832F8C
:10115600922F66960FB6F894DEBF0FBECDBFDF9115
:10116600CF91FF90EF90DF90CF90BF90AF909F9080
:0C1176008F907F906F905F904F900895D5
:101182004F925F926F927F928F929F92AF92BF9295
:10119200CF92DF92EF92FF920F931F936B017C012C
:1011A200DC01CB01B701A6014427552760787F7780
:1011B2004115510560487F4759F4A7019601C701BF
:1011C200B6010E94E310A70196010E94A1101AC065
:1011D200181619061A061B06D4F0892B8A2B8B2B9C
:1011E20009F4CCC081E290E0909301018093000168
:1011F200A7019601C701B6010E94A0109B01AC0194
:101202000E94DF10562F472F382F292FBBC067E1CE
:10121200F594E794D794C7946A95D1F7C114D10491
:10122200E104F104E1F4C12CD12C7601A7FD0AC03E
:10123200880F991FAA1FBB1F2FEFC21AD20AE20AF8
:10124200F20AF4CF21E0C21AD108E108F108F094C1
:10125200E094D094C094C11CD11CE11CF11C2FE776
:10126200C21AD108E108F108AF77BB27A068C0FE17
:1012720004C0880F991FAA1FBB1FF594E794D79447
:10128200C794880F991FAA1FBB1FE9E1F0E040E055
:1012920050E060E071E0812C912C540100E010E0FC
:1012A200980128013901440E551E661E771E8415C9
:1012B2009505A605B70574F093018201040F151F69
:1012C200261F371F84199509A609B709840E951E92
:1012D200A61EB71E880F991FAA1FBB1F769567957A
:1012E200579547953197E9F6892B8A2B8B2BA1F1DC
:1012F20020E632E442EA5DE060E070E080E89FE3ED
:101302000E94A01020E030E040E85FE30E94CE108F
:1013120087FD22C020E632E442EA5DE060E070E050
:1013220080E89FE30E94A11020E030E040E85FE304
:101332000E94CE10181634F482E0880E911CA11C73
:10134200B11C0AC0D501C40181709927AA27BB2705
:10135200880E991EAA1EBB1ED501C401B595A7957C
:1013620097958795B15C37E1CC0CDD1CEE1CFF1C18
:101372003A95D1F7C80ED91EEA1EFB1E5C2D4D2DE3
:101382003E2D2F2D652F742F832F922F1F910F919A
:10139200FF90EF90DF90CF90BF90AF909F908F9093
:0A13A2007F906F905F904F900895C8
:1013AC004F925F926F927F928F929F92AF92BF9269
:1013BC00CF92DF92EF92FF920F931F93CF93DF9315
:1013CC00CDB7DEB72A970FB6F894DEBF0FBECDBFF0
:1013DC002B013C017A0169010E94A7104B015C01B1
:1013EC000E94F40D9B01AC01C301B2010E94A0103C
:1013FC002B013C0181149104A104B104F1F480E3AC
:10140C00F6018083C60101966C0130C0C501B401A0
:10141C002AE030E040E050E00E948B0FE1E0F0E089
:10142C00EC0FFD1FE00FF11F605D6083822E932E89
:10143C00A42EB52E0F5F1F4F02C000E010E0181451
:10144C0019041A041B0414F30EC001501109E1E035
:10145C00F0E0EC0FFD1FE00FF11F8081F60180839F
:10146C00C60101966C01101611067CF31E141F04A4
:10147C007CF586010F5F1F4F8EE2F601808320C042
:10148C0020E030E040E251E4C301B2010E94E310DD
:10149C002B013C010E94A7105801FFEFAF1ABF0AA5
:1014AC0020E3260FF80120830E94F40D9B01AC0170
:1014BC00C301B2010E94A0102B013C0176018501F1
:1014CC006701F1E0CF1AD1081E141F04CCF201C041
:1014DC008601F80110822A960FB6F894DEBF0FBE73
:1014EC00CDBFDF91CF911F910F91FF90EF90DF90C7
:1014FC00CF90BF90AF909F908F907F906F905F90A8
:04150C004F9008955F
:10151000CF93DF9300D000D0CDB7DEB70E94541038
:1015200078940E9499100E94DB106BEF70E080E0CD
:101530000E94550F80911A018111FCCF0E94DB108F
:1015400065E071E080E00E94550F80E009C0E82F5F
:10155000F0E0EE0FFF1FEE5FFE4F118210828F5FF3
:101560008A30A8F310921601EAE7F0E080818064E7
:101570008083109285001092840081E0809319018D
:101580000E94741009C080917A0086FD05C0EAE7C8
:10159000F0E0808180648083809119018111F3CF14
:1015A0001982812C912C540118C08981E82FF0E018
:1015B000EE0FFF1FEE5FFE4F6081718180E090E0D3
:1015C0000E94F20D9B01AC01C501B4010E94A11063
:1015D0004B015C0189818F5F898389818A3028F37F
:1015E00020E030E040E251E4C501B4010E94DF1088
:1015F0000E94F60C2B013C010E9492104B015C01F1
:101600001BE7E12E14E1F12E0EE21FE320E030E0B3
:101610004CE852E40E94B50D69837A838B839C83E6
:1016200081E08093170114C080911701882381F015
:10163000C0901801E980FA800B811C81A5019401FA
:10164000C301B2010E942D0B109217010E94EC10F1
:0A16500080911A01882341F364CF52
:10165A004F925F926F927F928F929F92AF92BF92B8
:10166A00CF92EF92FF920F931F93CF93DF93CDB751
:10167A00DEB729970FB6F894DEBF0FBECDBF2B0198
:10168A003C0149015A01EE82FF82088719871C2D05
:10169A000E94DB101130C1F018F0123089F146C0F7
:1016AA0060ED70E080E00E94550F8E010F5F1F4FC2
:1016BA00980143E050E0C301B2010E94D609B80183
:1016CA0080E80E94550F37C067ED70E080E00E9405
:1016DA00550F8E010F5F1F4F980143E050E0C5017F
:1016EA00B4010E94D609B80180E80E94550F80EC27
:1016FA000E94D3106DED70E080E00E94550F1BC070
:10170A0062EE70E080E00E94550F8E010F5F1F4F5E
:10171A00980143E050E06E817F81888599850E9417
:10172A00D609B80180E80E94550F05C06AEE70E03C
:10173A0080E00E94550F29960FB6F894DEBF0FBEBF
:10174A00CDBFDF91CF911F910F91FF90EF90CF9076
:10175A00BF90AF909F908F907F906F905F904F90C7
:02176A000895E0
:10176C0010C00E94B51058F00E94AE1040F029F441
:10177C005F3F29F00C94C31051110C94BD100C94C4
:10178C00E7100E94F50E68F39923B1F3552391F3FA
:10179C00951B550BBB27AA2762177307840738F0D4
:1017AC009F5F5F4F220F331F441FAA1FA9F335D031
:1017BC000E2E3AF0E0E832D091505040E695001CE5
:1017CC00CAF72BD0FE2F29D0660F771F881FBB1F9F
:1017DC00261737074807AB07B0E809F0BB0B802D7D
:1017EC00BF01FF2793585F4F3AF09E3F510578F0A9
:1017FC000C94C3100C94BD105F3FE4F3983ED4F3EB
:10180C00869577956795B795F7959F5FC9F7880F7C
:10181C00911D9695879597F90895E1E0660F771FCE
:10182C00881FBB1F621773078407BA0720F0621B5F
:0E183C00730B840BBA0BEE1F88F7E09508952E
:10184A000FC00E94AE1038F00E94B51020F0952308
:10185A0011F00C94C3100C94E71011240C94BD10D1
:10186A000E94F50E70F3959FC1F3950F50E0551F36
:10187A00629FF001729FBB27F00DB11D639FAA27DB
:10188A00F00DB11DAA1F649F6627B00DA11D661F2A
:10189A00829F2227B00DA11D621F739FB00DA11D4B
:1018AA00621F839FA00D611D221F749F3327A00D05
:1018BA00611D231F849F600D211D822F762F6A2FA1
:1018CA0011249F5750409AF0F1F088234AF0EE0F06
:1018DA00FF1FBB1F661F771F881F91505040A9F733
:1018EA009E3F510580F00C94C3100C94BD105F3FCD
:1018FA00E4F3983ED4F3869577956795B795F7956F
:10190A00E7959F5FC1F7FE2B880F911D96958795E6
:04191A0097F908959C
:10191E0011C00E94AE1038F00E94B51020F039F4BC
:10192E009F3F19F426F40C94E7100EF4E095E7FBB4
:10193E000C94C310E92F0E94F50E58F3BA176207E4
:10194E0073078407950720F079F4A6F50C94BC1064
:10195E000EF4E0950B2EBA2FA02D0B01B9019001BC
:10196E000C01CA01A0011124FF27591B99F0593F00
:10197E0050F4503E68F11A16F040A22F232F342F48
:10198E004427585FF3CF469537952795A795F04096
:10199E005395C9F77EF41F16BA0B620B730B840BAB
:1019AE00BAF09150A1F0FF0FBB1F661F771F881F63
:1019BE00C2F70EC0BA0F621F731F841F48F48795BB
:1019CE0077956795B795F7959E3F08F0B0CF9395AD
:0E19DE00880F08F09927EE0F979587950895CA
:1019EC00CF92DF92EF92FF9220E030EC4FE754E47D
:1019FC000E94DF1020E030E040EA50E40E94E31047
:101A0C006B017C0120E030E0A9010E94C910882301
:101A1C0009F43FC0A701960160E070E080EA90E411
:101A2C000E94A01020E030E543E458E40E94E3104B
:101A3C00A70196010E94DF1020E030E64AE657E449
:101A4C000E94DF100E94230723EC35EF48E25FEB86
:101A5C000E94E31020E030E040EA5FE30E94A11016
:101A6C009B01AC0160E070E080E291E40E94940084
:101A7C002EEA37E448E352E40E94E31020E034E01D
:101A8C004FEB56E40E94DF10562F472F382F292F8B
:101A9C0004C050E040E030E020E0652F742F832F2D
:0C1AAC00922FFF90EF90DF90CF900895F4
:101AB8000F931F93CF93DF93EA0140385105D4F079
:101AC80020E030E040E05FE70E94E3109E012F57DE
:101AD8003109203831056CF120E030E040E05FE763
:101AE8000E94E310CE5FD109C038D1051CF1CFE7C1
:101AF800D0E020C042385F4FECF420E030E040E80E
:101B08005CE00E94E3109E012A593F4F22384FEFB4
:101B180034077CF420E030E040E85CE00E94E31009
:101B2800C453DF4FC2382FEFD20724F4C2E8DFEFE7
:101B380001C0E9019E0121583F4F8901330F220B53
:101B4800330BA9019801E7E1220F331F441F551FEA
:101B5800EA95D1F70E94E310DF91CF911F910F9181
:021B68000895DE
:101B6A004F925F926F927F928F929F92AF92BF92A3
:101B7A00CF92DF92EF92FF920F931F934B015C017A
:101B8A00CA01B9012701380120E030E04AE754E4EC
:101B9A000E94E3106B017C01A3019201C501B4010B
:101BAA000E94E3109B01AC01C701B6010E94E31039
:101BBA002DEC3CEC4CE551E40E94DF101F910F9193
:101BCA00FF90EF90DF90CF90BF90AF909F908F9053
:0A1BDA007F906F905F904F90089588
:101BE400E89409C097FB3EF49095809570956195B3
:101BF4007F4F8F4F9F4F9923A9F0F92F96E9BB2769
:101C04009395F695879577956795B795F111F8CFE4
:101C1400FAF4BB0F11F460FF1BC06F5F7F4F8F4F4F
:101C24009F4F16C0882311F096E911C0772321F045
:101C34009EE8872F762F05C0662371F096E8862FDD
:101C440070E060E02AF09A95660F771F881FDAF734
:0A1C5400880F9695879597F908957B
:101C5E000E94FD0E88F09F5798F0B92F9927B75123
:101C6E00B0F0E1F0660F771F881F991F1AF0BA9532
:101C7E00C9F714C0B13091F00E94BC10B1E00895C4
:101C8E000C94BC10672F782F8827B85F39F0B93FB6
:101C9E00CCF3869577956795B395D9F73EF49095E5
:0E1CAE008095709561957F4F8F4F9F4F0895E1
:101CBC001F920F920FB60F9211242F933F938F9375
:101CCC00EF93FF93E091160181E08E0F8093160144
:101CDC00F0E02091780030917900EE0FFF1FEE5F5D
:101CEC00FE4F318320838A3010F010921601FF9141
:101CFC00EF918F913F912F910F900FBE0F901F90EE
:021D0C00189528
:101D0E002FE788E391E0215080409040E1F700C03A
:101D1E00000060E080E30E94221060E080E30E94F9
:101D2E00221060E080E30E94221060E080E20E94B8
:101D3E00221088E20E94D3108CE00E94D31086E01D
:0A1D4E000E94D3100E94DB100895DC
:101D58001F920F920FB60F9211245F936F937F9388
:101D68008F939F93AF93BF938091180190E0019652
:101D780063E070E00E94B60F8093180181E08093C1
:101D88001701BF91AF919F918F917F916F915F9153
:0A1D98000F900FBE0F901F901895DA
:101DA200990F0008550FAA0BE0E8FEEF161617066A
:101DB200E807F907C0F012161306E407F50798F0D2
:101DC200621B730B840B950B39F40A2661F0232BEB
:101DD200242B252B21F408950A2609F4A140A69567
:081DE2008FEF811D811D0895A2
:101DEA0057FD9058440F551F59F05F3F71F04795C2
:101DFA00880F97FB991F61F09F3F79F087950895A7
:101E0A00121613061406551FF2CF4695F1DF08C0C5
:101E1A00161617061806991FF1CF869571056105E2
:041E2A00089408957B
:101E2E00A1E21A2EAA1BBB1BFD010DC0AA1FBB1FD0
:101E3E00EE1FFF1FA217B307E407F50720F0A21B42
:101E4E00B30BE40BF50B661F771F881F991F1A94AF
:101E5E0069F760957095809590959B01AC01BD01D9
:041E6E00CF01089503
:101E72002F923F924F925F926F927F928F929F9298
:101E8200AF92BF92CF92DF92EF92FF920F931F9386
:101E9200CF93DF93CDB7DEB7CA1BDB0B0FB6F89437
:081EA200DEBF0FBECDBF0994A5
:101EAA00CF92DF92EF92CF936B01E82EC0E003C08E
:101EBA000E94D710CF5FAE2DC6018C0F911DA11DB8
:101ECA00FC018491A7FD80818111F2CFCF91EF901F
:061EDA00DF90CF90089597
:101EE0002A88398848885F846E847D848C849B84AA
:101EF000AA84B984C884DF80EE80FD800C811B81B8
:101F0000AA81B981CE0FD11D0FB6F894DEBF0FBEE6
:061F1000CDBFED010895B4
:101F1600052E97FB1EF400940E947C1057FD07D0F7
:101F26000E94170F07FC03D04EF40C947C105095BA
:0E1F36004095309521953F4F4F4F5F4F0895D6
:101F44001F920F920FB60F9211248F939F9390912B
:101F54001A0181E0891B80931A019F918F910F9040
:081F64000FBE0F901F901895AD
:101F6C0097FB072E16F4009407D077FD09D00E943A
:101F7C00CA0F07FC05D03EF4909581959F4F0895AC
:081F8C00709561957F4F0895E7
:101F9400AA1BBB1B51E107C0AA1FBB1FA617B7078B
:101FA40010F0A61BB70B881F991F5A95A9F78095A7
:081FB4009095BC01CD010895D8
:101FBC008AB1837F8AB98BB18C608BB9E9E6F0E08A
:101FCC0080818A60808380818A7F80838DB38360E7
:041FDC008DBB08951C
:101FE000109280008DE08093810084E998E99093BD
:101FF000890080938800EFE6F0E080818260808332
:02200000089541
:10200200092E0394000C11F4882352F0BB0F40F404
:10201200BF2B11F460FF04C06F5F7F4F8F4F9F4F44
:0220220008951F
:10202400CF93DF93C82FD62F807F0E9422106D2F6D
:102034008C2F8295807F0E942210DF91CF9108958A
:10204400CF93807F6170C82FC62B8C2F82600E9433
:0C20540084108C2F0E948410CF910895FE
:1020600084B18C6284B981E58CBD8DB58E7F8DBDC8
:0820700085B18B7F85B908954D
:102078001F920F920FB60F921124109219010F9010
:082088000FBE0F901F90189588
:1020900057FD05C065917591859195910895619160
:0820A000719181919191089565
:1020A8000E9430100E94870E0E94DE0F0E94F00FDF
:0620B8000E948B10089548
:1020BE00EC010E94F3100E94F210CE010E94F41067
:0620CE00CE010E94F0109B
:1020D40085B1846085B985B1846085B985B18B7F0C
:0420E40085B908951D
:1020E800E0E6F0E080818861808389E2808308955A
:1020F80090958095709561957F4F8F4F9F4F08956C
:0E2108008EBD0DB407FEFDCF0E946A10089533
:0E21160080E480937C008FE880937A00089527
:0E2124002DE33AE047E55EE30E94E3100895E4
:0E213200E0E6F0E080818861808310820895ED
:0E2140005058BB27AA270E948F0C0C94011048
:0E214E000E942F0E6894B1110C94BD100895DC
:0E215C0000240A9416161706180609060895A0
:0E216A0000240A9412161306140605060895A2
:0E217800E894BB2766277727CB0197F90895D7
:0C21860097F99F6780E870E060E0089522
:0A2192000E94D10E08F481E00895C8
:0A219C000E94D10E08F48FEF0895A1
:0821A60060E00E941210089590
:0821AE0061E00E941210089587
:0821B60081E00E94D31008959E
:0821BE000E94B60B0C94011005
:0821C6000E94250C0C9401108D
:0621CE009FEF80EC089574
:0421D4000C94000067
:0421D800A895089529
:0421DC009F7708954C
:0421E0000E946600F3
:0221E40008955C
:0221E60008955A
:0221E800089558
:0121EA0001F3
:00000001FF
