:100000000C9434000C94FC000C94FC000C94FC0048
:100010000C94FC000C94FC000C94FC000C94FC0070
:100020000C94FC000C94FC000C94FC000C94FC0060
:100030000C94FC000C94FC000C94FC000C94FC0050
:100040000C94FC000C94FC000C94FC000C94FC0040
:100050000C94FC000C94FC000C94FC000C94FC0030
:100060000C94FC000C94FC0011241FBECFEFD8E0D0
:10007000DEBFCDBF0E94B3000C94D300F894FFCF35
:100080002FE788E391E0215080409040E1F700C0E5
:10009000000060E080E30E947D008FE097E201971E
:1000A000F1F700C0000060E080E30E947D008FE86F
:1000B00091E00197F1F700C0000060E080E30E944A
:1000C0007D008FE891E00197F1F700C0000060E04B
:1000D00080E20E947D008FE891E00197F1F700C077
:1000E000000088E20E94DE008CE00E94DE0086E0D4
:0A00F0000E94DE000E94E80008955F
:1000FA00CF93DF93D82FD07FD62B20E1829FC001E8
:10010A001124C62FC82B8D2F82600E94C40087EE4F
:10011A0093E00197F1F700C000008D2F8D7F0E94B8
:10012A00C40087EE93E00197F1F700C000008C2F1E
:10013A0082600E94C40087EE93E00197F1F700C045
:10014A0000008C2F8D7F0E94C40087EE93E00197F8
:0C015A00F1F700C00000DF91CF91089584
:100166000E94F2000E94400081E40E94F80080ECA8
:100176000E94DE0082E40E94F80083E40E94F800F8
:02018600FFCFA9
:100188008EBD0DB407FEFDCF85B1846085B98AE1C7
:0E0198008A95F1F700C085B18B7F85B9089577
:1001A600EC010E9401010E940001CE010E940201A1
:0601B600CE010E94FE00D4
:1001BC0060E00E947D008FE99FE00197F1F700C09D
:0401CC000000089592
:1001D00081E00E94DE008FE99FE00197F1F700C007
:0401E000000008957E
:0C01E40084B18C6284B981E08CBD089568
:0801F00061E00E947D0008950A
:0401F8000C94000063
:0401FC000E943E001F
:0202000008955F
:0202020008955D
:0202040008955B
:00000001FF
